:020000040800F2
:1000000000500020F9370008413200084332000850
:10001000453200084732000849320008000000005D
:100020000000000000000000000000004B3200084B
:100030004D320008000000004F3200085132000825
:1000400041380008413800084138000841380008AC
:10005000413800084138000841380008413800089C
:10006000413800084138000841380008553200087E
:10007000413800084138000841380008413800087C
:10008000413800084138000841380008413800086C
:100090006132000841380008413800084138000842
:1000A000413800084138000841380008413800084C
:1000B000413800084138000841380008413800083C
:1000C000413800084138000841380008413800082C
:1000D000413800084138000841380008413800081C
:1000E000413800084138000841380008000000008D
:1000F0000000000000000000000000000000000000
:0C01000000000000000000005FF808F1A3
:10010C0010B5054C237833B9044B13B10448AFF345
:10011C0000800123237010BD7C0100200000000032
:10012C009C38000808B5034B1BB103490348AFF3D7
:10013C00008008BD00000000800100209C380008F1
:10014C0038B50E4B054618784FF47A73B3FBF0F3C1
:10015C000B4A1068B0FBF3F000F0EEFA044658B905
:10016C000F2D09D8024629464FF0FF3000F0A4FAB3
:10017C00044B20461D6038BD012038BD0000002016
:10018C001801002004000020074A08B5136803205A
:10019C0043F01003136000F07DFA0020FFF7D0FF4E
:1001AC0003F026F8002008BD00200240034A044B4F
:1001BC0011681B780B441360704700BFBC03002010
:1001CC0000000020014B1868704700BFBC030020E2
:1001DC0038B50446FFF7F6FF0546631C1EBF044BFB
:1001EC001B78E418FFF7EEFF401B8442FAD838BDA9
:1001FC00000000207047436A10B59A6A12F0500F45
:10020C001BD19A6A42F400729A621A68926802F4DC
:10021C006022B2F5602F0CD1DA6852B99A6A22F4D6
:10022C0080729A629A6AD2045EBF9A6A42F00102A4
:10023C009A621846FFF7DEFF10BD1B6ABDE810403E
:10024C001B6B1847704708B5406AFFF7FBFF08BDEA
:10025C007047406A08B5836A43F040038362C36AFF
:10026C0043F00403C362FFF7F3FF08BD002373B52B
:10027C00019390F82430012B74D001234D6880F841
:10028C002430062D02684FEA85030C6825D82B44D0
:10029C001F25566B053B9D4026EA050504FA03F322
:1002AC002B435363092C4FEA44038D682FD907263F
:1002BC002344D1681E3B9E4021EA060105FA03F354
:1002CC000B43D360A4F11003012B2BD90023002284
:1002DC0080F82420184602B070BD0C2D0BD82B448E
:1002EC001F25166B233B9D4026EA050504FA03F3F4
:1002FC002B431363D6E72B441F25D66A413B9D4005
:10030C0026EA050504FA03F32B43D362CAE7072652
:10031C00116923449E4021EA060105FA03F30B43BD
:10032C001361CFE7104B9A4216D193681B02CDD4C0
:10033C009368102C43F400039360C7D10B4B0C4A09
:10034C001B68B3FBF2F20A2353430193019B002B6E
:10035C00BCD0019B013BF8E7836A43F02003836226
:10036C000123B4E70223B5E7002401401801002063
:10037C0040420F0090F8243030B5012B1DD00123E2
:10038C000A6880F824308B68012B03685C680CBF0A
:10039C0044F0400424F040045C604C685D682243E7
:1003AC00074C2C4022435A60CA685A620A699A6206
:1003BC00002380F82430184630BD022030BD00BF29
:1003CC00E0FD3FFF002373B50193036804469A6870
:1003DC00D20702D5002002B070BD9A6842F001022B
:1003EC009A60124B124A1B68B3FBF2F30193019B08
:1003FC00C3B9FFF7E7FE064623689D6815F00105B3
:10040C00E8D1FFF7DFFE801B0228F5D9A36A84F838
:10041C00245043F01003A362E36A012043F001036C
:10042C00E362D8E7019B013BE0E700BF1801002025
:10043C0040420F002DE9D8419046404B02680446DB
:10044C009A420F4602D03E498A4203D15B6813F4AC
:10045C00702F6ED194F82430012B6CD001232046E0
:10046C0084F82430FFF7AEFF064600285DD1A06A61
:10047C00216820F47060324B20F0010040F4807051
:10048C009942A06204D12D4A536813F4702F3ED1C7
:10049C00A36A23F48013A3624B685A0505D5A36A9B
:1004AC0023F4405343F48053A362A36A206A13F4E9
:1004BC00805318BFE36A3A4618BF23F00603E36281
:1004CC00002384F824301F4B4C3183621E4BC362D3
:1004DC001E4B03636FF0020341F84C3C51F8443C53
:1004EC0043F4807341F8443C434600F06BF92368B5
:1004FC009A6802F46022B2F5602F9A680CBF42F43D
:10050C00A00242F480129A603046BDE8D881A36AFA
:10051C0043F48013A36253685B0541BFA06A20F4C7
:10052C00405040F48050A062BFE7002384F8243090
:10053C00EAE70126E8E70226E6E700BF00240140CF
:10054C000028014003020008530200085F02000863
:10055C0038B5036804469A68D20701D4002038BD28
:10056C009A6822F001029A60FFF72CFE0546236878
:10057C009B68DB07F2D5FFF725FE401B0228F6D956
:10058C00A36A012043F01003A362E36A43F0010362
:10059C00E36238BD70B50446002871D0836A23B974
:1005AC00C36280F8243002F0CDFC2046FFF7D0FF68
:1005BC00A36A13F0100FA36A64D1002862D1E16919
:1005CC0023F48853626823F0020343F002030A43C6
:1005DC00A168A362E368B1F5807F42EA430238D098
:1005EC00012914BF06464FF480766569012D07D1A9
:1005FC00002B30D1A369013B46EA433545F4006634
:10060C002368B1F5807F5D6825F4694545EA0605E8
:10061C005D609E681D4D05EA060545EA02059D6074
:10062C0001D0012920D1216901390905DD6A25F4A0
:10063C0070052943D9629968154B0B409A4215D124
:10064C000023E362A36A23F0030343F00103A362D4
:10065C0070BD0E46C9E7A36A43F02003A362E36AA8
:10066C0043F00103E362CBE70021DFE7A36A23F049
:10067C00120343F01003A362E36A43F00103E36245
:10068C00012070BD43F01003A362F9E7FDF7E1FF11
:10069C00FE0E1FFF074A0002D36800F4E06023F44B
:1006AC00E0631B041B0C43F0BF6343F400330343B0
:1006BC00D360704700ED00E0174B30B5DC68C4F335
:1006CC000224C4F10703251D042B28BF0423062D87
:1006DC004FF0010598BF002405FA03F303F1FF3333
:1006EC0088BF033C1940A14005FA04F4013C2240A8
:1006FC00002842EA01024FEA0212AFBF00F160404B
:10070C00064B00F00F00D2B2A5BFD2B200F561408B
:10071C001A5480F8002330BD00ED00E014ED00E029
:10072C000123420900F01F0003FA00F0014B43F8CB
:10073C002200704700E100E00138B0F1807F0AD25E
:10074C00F021064B064A586082F82310002007223D
:10075C0098601A6070470120704700BF10E000E0FD
:10076C0000ED00E010B530B314220168134B84681F
:10077C000B44B3FBF2F39B000364114B0A68C36395
:10078C00436822F47F522343C46822F0300223438F
:10079C00046923434469234384692343C469234381
:1007AC0013430B600122002380F82120836380F81F
:1007BC002030184610BD012010BD00BFF8FFFDBF52
:1007CC0000000240F0B590F82040012C35D00124F7
:1007DC0090F8215080F82040A5424FF000064FF0D1
:1007EC00020428D180F82140046886632668076CCF
:1007FC0026F001062660C66BBD40756063604368D9
:10080C000568102BC36A0BBFA260A160E160E260B7
:10081C004BB1236843F00E0323602B68002043F098
:10082C0001032B60F0BD236823F0040323602368CD
:10083C0043F00A03F0E780F820600220F0BD0000CE
:10084C0070B40425C66B026C34680368954025426D
:10085C00196832D04D0730D51A6896065EBF1A68F3
:10086C0022F004021A603E4A934219D01432934289
:10087C0018D01432934217D01432934217D014323A
:10088C00934217D0143293420CBF4FF480034FF0B5
:10089C008063344A5360C36A002B5ED070BC184727
:1008AC000423F6E74023F4E74FF48063F1E74FF4B9
:1008BC008043EEE74FF48023EBE702259540254279
:1008CC0035D08D0733D51A68940606D41A6822F0F1
:1008DC000A021A60012280F82120214A934219D081
:1008EC001432934218D01432934217D014329342DC
:1008FC0017D01432934217D0143293420CBF4FF4DA
:10090C0000134FF00073174A5360002380F8203017
:10091C00836AC1E70223F6E72023F4E74FF4007360
:10092C00F1E74FF40053EEE74FF40033EBE7082503
:10093C009540254211D009070FD5196821F00E01F9
:10094C001960012303FA02F27260836380F821308C
:10095C00002380F82030036B9EE770BC704700BF0B
:10096C0008000240000002402DE9F74F0022164615
:10097C00654BDFF8A4E1DFF8A4C14FF001080C6867
:10098C0008FA06F808EA0404A0457FD14D68122D38
:10099C0000F0AF8000F28880022D00F0A7807CD898
:1009AC00002D00F08E80012D00F09E804FF00F097D
:1009BC00FF2C93BF824606F18045083DD0F800B06D
:1009CC0092BFB500D0F804B0AD0009FA05F82BEAD7
:1009DC00080802FA05F588BF00F1040A48EA050583
:1009EC00CAF80050D1F804A01AF0805F4ED0474DE1
:1009FC00464FAD6926F0030845F00105BD61BD69A0
:100A0C0008F1804805F00105019508F5803806F0DD
:100A1C00030B019D4FEA8B0BD8F8085009FA0BF920
:100A2C0025EA09093A4DA84268D005F58065A84227
:100A3C0066D005F58065A84264D005F58065A842AE
:100A4C000CBF0325042505FA0BF545EA0905C8F882
:100A5C0008501D681AF4803F14BF2543A5431D6040
:100A6C005D681AF4003F14BF2543A5435D609D6883
:100A7C001AF4801F14BF2543A5439D60DD681AF44A
:100A8C00001F14BF2C4325EA0404DC600136102E31
:100A9C007FF473AF03B0BDE8F08F032D22D0112D7E
:100AAC0084D1CA68043281E71A4FBD4209D012D8EA
:100ABC00DFF86C904D4504D009F580394D457FF435
:100ACC0075AF8A68C2B1012A0CBFC0F81080C0F89B
:100ADC00148008226AE77545F3D06545F1D0DFF83C
:100AEC004490EBE7002261E7CA685FE7CA68083206
:100AFC005CE7CA680C3259E7042257E70025A2E7E5
:100B0C000125A0E702259EE70004014000100240E9
:100B1C0000080140000021100000311000003210CC
:100B2C0000001110000022100AB101617047090485
:100B3C00FBE72DE9F041044686B0002860D090F820
:100B4C00293403F0FF021BB980F8282402F0AAFC18
:100B5C00254603236E4655F8100B84F8293401F012
:100B6C0065F90FCD0FC62B6804F10408336098E8C3
:100B7C000E00206801F04AF90021206801F060F9AC
:100B8C000021234622460126084604F1100582F86E
:100B9C002810918601310F2982F8296082F82B00E8
:100BAC009063D063106402F12002F0D1002217464A
:100BBC0083F828229A8601320F2A83F8297283F847
:100BCC002B72C3F83872C3F83C72C3F8407203F14D
:100BDC002003EDD16E460FCD0FC62B68336098E81D
:100BEC000E00206801F02EF9012384F8247020688F
:100BFC0084F8293401F0FEFB002006B0BDE8F0813A
:100C0C000120FAE790F8283410B5012B04460ED0D9
:100C1C00012180F8281402F070FD206801F0E8FB37
:100C2C00206801F0FAF8002084F8280410BD022096
:100C3C0010BD90F8282410B5012A04460BD00122CF
:100C4C0080F8282484F82410006801F0CBFB0020E5
:100C5C0084F8280410BD022010BD38B5044648B2F3
:100C6C00002801F07F05B5BF04EB451104EB4111E1
:100C7C00283101F50A71C00F0D704870CB7094F8D3
:100C8C0028340A61012B09D00123206884F8283408
:100C9C0001F0F4F8002084F8280438BD022038BD97
:100CAC004BB2002B01F07F02B5BF00EB421100EB01
:100CBC004111283101F50A71DB0F10B50A704B7028
:100CCC0090F828340446012B09D0012380F82834ED
:100CDC00006801F045FA002084F8280410BD0220B9
:100CEC0010BD70B5002601F07F014D01441984F848
:100CFC00281205F50A710144C4F83C22C4F84032AC
:100D0C00C4F8446284F82962006801F08DFB304617
:100D1C0070BD01F00F0100EB4111B1F844027047B6
:100D2C0001F07F0170B54D014419236400260123A5
:100D3C0084F8281005F128010144E263666484F804
:100D4C002930006801F070FB304670BD2DE9F34787
:100D5C000446006801F050FB000400F19880206804
:100D6C0001F04AFB41050FD522682046B2F8443009
:100D7C0023F480631B041B0CA2F8443002F0C9FB63
:100D8C0000212046FFF755FF206801F035FB470492
:100D9C0008D52268B2F8443023F480431B041B0CA2
:100DAC00A2F84430206801F027FB860408D522689D
:100DBC00B2F8443023F400531B041B0CA2F844304B
:100DCC00206801F019FBC5041CD522682046B2F836
:100DDC00403023F004031B041B0CA2F84030B2F883
:100DEC00403023F008031B041B0CA2F8403002F027
:100DFC00B3FB2268B2F8443023F480531B041B0C61
:100E0C00A2F84430206801F0F7FA00051DD52068DF
:100E1C00B0F840309BB243F00803A0F84030B0F873
:100E2C00443023F400631B041B0CA0F84430B0F8CE
:100E3C0040309BB243F00403A0F8403001F0DCFAE0
:100E4C00C10402D4204602F077FB206801F0D4FAEA
:100E5C0082050BD522682046B2F8443023F4007387
:100E6C001B041B0CA2F8443002F04FFB206801F06D
:100E7C00C3FAC30508D52268B2F8443023F4807352
:100E8C001B041B0CA2F8443002B0BDE8F087002311
:100E9C00C84FDFF82483DFF82493ADF80430ADF8A5
:100EAC0006302068B0F844309BB2ADF804301B0417
:100EBC007FF555AFBDF8045015F00F0540F0AB8031
:100ECC00BDF80410038811F010019BB226D13B40F1
:100EDC000380B0F8503094F828209BB203EBC20387
:100EEC0000EB4300D0F80434E26BC3F309036364F2
:100EFC001344E363204602F001FB94F82430002BEA
:100F0C00CFD0226C002ACCD194F82430216843F045
:100F1C008003A1F84C3084F82420C2E7ADF80630E9
:100F2C00BDF806301A051FD5B0F8503094F82822B9
:100F3C009BB203EBC20300EB4303D3F80C34B4F8BD
:100F4C002C22C3F30903C4F8443204F22C4101F0FF
:100F5C006BFB22682046138823F070031B051B0DC6
:100F6C00138002F0BDFA9CE7BDF806301B0498D53F
:100F7C00038823F070031B051B0D0380B0F8503061
:100F8C0094F828229BB203EBC20300EB4303D3F883
:100F9C000C34C3F30903C4F8443263B1B4F82C2203
:100FAC00D4F83C1201F040FBD4F83C32D4F8442283
:100FBC001344C4F83C320021204602F097FA226810
:100FCC00D4F83852B2F850103E2D89B201F1060116
:100FDC0002F5806017D9C5F34F13EE0604BF03F179
:100FEC00FF339BB249EA83239BB240F8113013883C
:100FFC009BB203EA080383F4405343F4004343F0E9
:10100C00800313804DE7C5F34F03ED0744BF013355
:10101C009BB29B02E8E730F825309BB2ADF8063066
:10102C00BDF8063019043FD530F825304FEA451A83
:10103C0023F070031B051B0D20F8253004EB0A016F
:10104C0091F83232002B74D1B0F8503091F828223C
:10105C009BB2063303EBC20300EB4303D3F80064EB
:10106C00C6F3090636B1B1F82C223346D1F83C123E
:10107C0001F0DAFA04EB0A01D1F84432D1F83C223F
:10108C003344C1F84432D1F840323244C1F83C22E6
:10109C0023B1D1F83802864280F08680A2449AF8B7
:1010AC002812204602F022FABDF806301A067FF507
:1010BC00F8AE20686E0130F82530A1199BB23B4088
:1010CC0020F8253091F832300235002B78D1B0F869
:1010DC00503091F828209BB2023303EBC20300EB93
:1010EC004303D3F8003404EB4515C3F309036B60D9
:1010FC001BB18A8DC96B01F085F922682644B2F8C0
:10110C00503096F828109BB2023303EBC10302EB6C
:10111C004303D3F80024F36BC2F3090272641A443C
:10112C00336CF2632046002B40F0858002F0E6F928
:10113C00B7E691F8283230F82320DB0012F4804F08
:10114C00B0F8502092B221D00232134400EB43038A
:10115C00D3F80064C6F3090636B13346B1F82E2233
:10116C00D1F83C1201F060FA04EB0A0393F8281250
:10117C00226832F8213023F0F0031B051B0D43F4D9
:10118C00004343F0C00322F8213073E706321344C6
:10119C0000EB4303D3F80064C6F30906002EE3D03A
:1011AC003346B1F83022DBE791F828122046FFF7DE
:1011BC0098FD79E70F8FFFFF8FBFFFFF0080FFFFC8
:1011CC0091F8283030F82320DB0012F0400FB0F8F3
:1011DC00502092B220D00232134400EB4303D3F8D8
:1011EC00003404EB4515C3F309036B601BB1CA8DC6
:1011FC00C96B01F007F9A31993F82810226832F88B
:10120C00213023F0F0031B051B0D43F4404343F046
:10121C00800322F8213070E70632134400EB4303BD
:10122C00D3F8003404EB4515C3F309036B60002BB2
:10123C00E1D00A8EDCE7FFF773FD32E6012238B508
:10124C004BB2002B01F07F05B5BF00EB451100EB55
:10125C004111283101F50A71DB0FEDB28A700D7066
:10126C004B7090F82834044693420ED080F8282412
:10127C00006801F043F825B904F22C41206801F014
:10128C00BFF8002084F8280438BD022038BD38B5DA
:10129C0000244BB2002B01F07F02B5BF00EB4211D2
:1012AC0000EB4111283101F50A71DB0F8C700A70CB
:1012BC004B7090F828340546012B09D0012380F897
:1012CC002834006801F04CF885F82844204638BDD5
:1012DC00022038BD11F0800F1BBF01F07F0100EB25
:1012EC00411000EB4110283008BF00F50A701AB904
:1012FC0082728380002070470122C3801B0C827293
:10130C000381F7E703682DE9F341DB07054610D4A9
:10131C002B689F075ED42B68190700F195802B680A
:10132C005A0700F1BF80EA69002A40F02D810020A5
:10133C0014E0904C636803F00C03042B07D0636833
:10134C0003F00C03082B0CD16368DE0309D523686A
:10135C009C03DDD56B68002BDAD1012002B0BDE80F
:10136C00F0816B68B3F5803F10D1236843F4803370
:10137C002360FEF727FF064623689803C8D4FEF7C0
:10138C0021FF801B6428F7D90320E7E79BB923686A
:10139C0023F480332360236823F480232360FEF737
:1013AC0011FF064623689903B2D5FEF70BFF801B8D
:1013BC006428F7D9E8E7B3F5A02F236803D143F4E9
:1013CC0080232360D1E723F480332360236823F444
:1013DC008023CDE7674C636813F00C0F07D063686C
:1013EC0003F00C03082B10D16368DA030DD42368C7
:1013FC009B0702D52B69012BAFD123686A6923F0B7
:10140C00F80343EAC203236085E72A695A4B6AB1A1
:10141C0001221A60FEF7D6FE064623689F07ECD41D
:10142C00FEF7D0FE801B0228F7D9ADE71A60FEF755
:10143C00C9FE0646236898077FF56DAFFEF7C2FE1E
:10144C00801B0228F6D99FE7AA694A4C4B4BDAB1AC
:10145C0001221A60FEF7B6FE0646636A9B070DD59D
:10146C004FF4FA52464B1B68B3FBF2F3019300BFE7
:10147C00019B5A1E0192002BF9D150E7FEF7A2FEF8
:10148C00801B0228E9D97FE71A60FEF79BFE06460F
:10149C00636A9F077FF543AFFEF794FE801B02281B
:1014AC00F6D971E7334CE369D80024D40127E369FA
:1014BC0043F08053E361E36903F080530093009B96
:1014CC00304E3368D90518D5EB68012B26D1236A29
:1014DC0043F001032362FEF775FE41F28836804625
:1014EC00236A9B073FD5002F3FF41DAFE36923F020
:1014FC008053E36117E70027E2E7336843F4807316
:10150C003360FEF75FFE80463368DA05DCD4FEF705
:10151C0059FEA0EB08006428F6D935E7ABB9236A6D
:10152C0041F2883823F001032362236A23F0040379
:10153C002362FEF747FE0646236A9807D3D5FEF7CB
:10154C0041FE801B4045F7D91EE7052B236A03D1CA
:10155C0043F004032362BAE723F001032362236AF6
:10156C0023F00403B6E7FEF72DFEA0EB0800B04213
:10157C00B6D909E700100240000042428004424202
:10158C001801002000700040224C636803F00C032B
:10159C00082B3FF4E2AE00231F4E022A33602BD1FE
:1015AC00FEF710FE0746236899011FD42B6AB3F58A
:1015BC00803F05D16268A96822F400320A43626058
:1015CC00696A62680B4322F474121343636001234B
:1015DC003360FEF7F7FD054623689A013FF5A7AE89
:1015EC00FEF7F0FD401B0228F6D9CDE6FEF7EAFD2A
:1015FC00C01B0228D7D9C7E6FEF7E4FD05462368D1
:10160C009B017FF594AEFEF7DDFD401B0228F6D959
:10161C00BAE600BF001002406000424230B5194BE0
:10162C0087B002AC03F110052246186859680833DC
:10163C0003C2AB421446F7D101238DF804300223C8
:10164C0011498DF805304B6803F00C02082A17D1AC
:10165C00C3F3834206A80244DB0312F8102C0CD50A
:10166C004B680A48C3F34043504306AA134413F88B
:10167C00143CB0FBF3F007B030BD05485043FAE71B
:10168C000248F8E7B43800080010024000127A0053
:10169C0000093D00544A2DE9F0411368054603F05A
:1016AC0007038B420E462AD329688C0734D4CA0709
:1016BC0047D44D4A136803F007039E42C0F0828062
:1016CC002A684A4C12F0040F40F08780130706D5A5
:1016DC0063682A6923F4605343EAC2036360FFF72B
:1016EC009DFF6368424AC3F30313D35CD840414B5C
:1016FC0018600020FEF724FD0020BDE8F08113687F
:10170C0023F007030B431360136803F0070399429C
:10171C00CAD00120BDE8F081344B11F0040F1EBF7C
:10172C005A6842F4E0625A60080742BF5A6842F4B1
:10173C0060525A605A68A86822F0F00202435A605C
:10174C00B5E76A68294C012A23681CD113F4003FC1
:10175C00DFD0636841F2883823F0030313436360DE
:10176C00FEF730FD6B680746012B14D1636803F05C
:10177C000C03042B9DD0FEF725FDC01B4045F5D96D
:10178C000320BDE8F081022A02D113F0007FDFE7CD
:10179C0013F0020FDCE7022B0FD1636803F00C038C
:1017AC00082B86D0FEF70EFDC01B4045F5D9E7E7A8
:1017BC00FEF708FDC01B4045E2D8636813F00C0F20
:1017CC00F6D176E7136823F00703334313601368ED
:1017DC0003F007039E429CD172E76368E96823F427
:1017EC00E0630B43636071E700200240001002408D
:1017FC00C43800081801002003682DE9F341D9070B
:10180C00054620D5354CE369DA0032D40127E3696B
:10181C0043F08053E361E36903F080530193019B30
:10182C002F4E3368DB0526D5236A13F4407336D16B
:10183C00236A6A6823F44073134323621FB1E3697C
:10184C0023F08053E3612868830706D5234AA968EF
:10185C00536823F440430B43536010F010001BD02B
:10186C001E4AE9685368002023F480030B4353603D
:10187C0012E00027D4E7336843F480733360FEF73B
:10188C00A1FC80463368D805CED4FEF79BFCA0EBB8
:10189C0008006428F6D9032002B0BDE8F0816A681C
:1018AC0002F440729342C3D001200E4A236A1060A6
:1018BC00002023F4407110602162D907B8D5FEF7DF
:1018CC0081FC41F288380646236A9A07B0D4FEF7A9
:1018DC0079FC801B4045F7D9DDE700BF00100240C2
:1018EC000070004040044242036A70B523F00103CB
:1018FC000362036A446882690D6822F073022A430A
:10190C008D6823F002032B430A4DA8420BD1CD68FE
:10191C0023F008032B438E694D6924F4407435433E
:10192C0023F004032C43446082614A6842630362DF
:10193C0070BD00BF002C0140036A70B523F48073A6
:10194C000362036A4468C2690D6822F073022A4379
:10195C008D6823F4007343EA05230B4DA8420DD187
:10196C00CD6823F4006343EA05238E694D6924F4A2
:10197C004054354323F4806344EA05144460C26147
:10198C004A68C263036270BD002C0140036A30B523
:10199C0023F480530362036A4468C2690D6822F41D
:1019AC00E64242EA05228D6823F4005343EA0533EC
:1019BC00064DA84202BF4D6924F4804444EA8514C4
:1019CC004460C2614A680264036230BD002C01406D
:1019DC00704790F83C3070B5012B4FF002031CD0CF
:1019EC00012280F83D30036880F83C209A6822F48C
:1019FC007F4222F077029A600A68402A79D019D87F
:101A0C00102A00F093800AD8002A00F08980012364
:101A1C0080F83D30002380F83C30184670BD202AF9
:101A2C0000F08A80302AF2D19A6822F0700242F0DB
:101A3C00370236E0702A36D01BD8502A42D0602AA2
:101A4C00E5D11C6A4D6824F01004CE681C629969BB
:101A5C001A6A21F4704122F0A00242EA051241EA0E
:101A6C00063199611A629A6822F0700242F067029C
:101A7C0017E0B2F5805F11D0B2F5005FC7D18A686C
:101A8C004D689C68C9682A4324F47F4442EA0122C9
:101A9C0022439A609A6842F4804202E09A6822F0EB
:101AAC0007029A60B3E78A684D689C68C9682A4344
:101ABC0024F47F4442EA012222439A609A6842F05D
:101ACC007702EEE74C68CE68196A1D6A21F00A01AC
:101ADC0025F001051D629A69214322F0F00242EAC9
:101AEC0006129A6119629A6822F0700242F057024B
:101AFC00D7E74C68CE68196A1D6A21F00A0125F0F7
:101B0C0001051D629A69214322F0F00242EA061295
:101B1C009A6119629A6822F0700242F04702C0E79B
:101B2C009A6822F0700242F00702BAE79A6822F033
:101B3C00700242F01702B4E79A6822F0700242F089
:101B4C002702AEE71A4A036890420AD0B0F1804FE0
:101B5C0007D0A2F59432904203D002F580629042F5
:101B6C0015D14A6823F070031343114A90420AD0EE
:101B7C00B0F1804F07D0A2F59432904203D002F519
:101B8C008062904203D1CA6823F4407313434A69BC
:101B9C0023F08003134303608B68C3620B6883627A
:101BAC00034B984204BF0B690363012343617047E5
:101BBC00002C014010B50446A0B190F83D3003F064
:101BCC00FF021BB980F83C2001F070FB0223206857
:101BDC0084F83D30211DFFF7B5FF0123002084F868
:101BEC003D3010BD012010BD10B50446A0B190F8D9
:101BFC003D3003F0FF021BB980F83C20FFF7E8FEF4
:101C0C000223206884F83D30211DFFF79BFF012340
:101C1C00002084F83D3010BD012010BD036A70B562
:101C2C0023F010030362036A446882690D6822F48E
:101C3C00E64242EA05228D6823F0200343EA0513AD
:101C4C000B4DA8420DD1CD6823F0800343EA051358
:101C5C008E694D6924F44064354323F0400344EA13
:101C6C008504446082614A688263036270BD00BF70
:101C7C00002C014038B590F83C300446012B4FF055
:101C8C00020025D0012384F83D0084F83C300C2A56
:101C9C0018D8DFE802F0071717171E1717172F179A
:101CAC00171740002068FFF71FFE236809699A691F
:101CBC0042F008029A619A6922F004029A619A69C8
:101CCC000A439A610123002084F83D3084F83C00DB
:101CDC0038BD2068FFF7A2FF236809699A6942F4AE
:101CEC0000629A619A6922F480629A619A6942EA66
:101CFC000122E6E72068FFF71FFE23680969DA690D
:101D0C0042F00802DA61DA6922F00402DA61DA6977
:101D1C000A43DA61D6E72068FFF738FE23680969C1
:101D2C00DA6942F40062DA61DA6922F48062DA611B
:101D3C00DA6942EA0122ECE710B50124036A8C400F
:101D4C0023EA04030362036A8A401A43026210BD49
:101D5C0010B5044601220068FFF7EEFF2368064A1F
:101D6C000020934202BF5A6C42F400425A641A6833
:101D7C0042F001021A6010BD002C014090F83C307A
:101D8C00012B1FD0CB688A6823F4407313434A6835
:101D9C0023F4806313430A6823F4006313430A6932
:101DAC0023F4805313434A6923F4005313438A6981
:101DBC0023F44043134302685364002380F83C30FF
:101DCC00184670470220704790F83C3010B5012B34
:101DDC004FF0020318D080F83D3003680C685A6845
:101DEC00496822F070025A605A6822435A609A6815
:101DFC0022F080029A609A680A439A60012380F864
:101E0C003D30002380F83C30184610BD84B001A84A
:101E1C0080E80E0004B000207047B0F840309BB250
:101E2C0043F43F43A0F8403000207047B0F84030F6
:101E3C0023F474535B045B0CA0F840300020704713
:101E4C000020704784B010B503AC84E80E00BDE8E8
:101E5C00104000220123A0F84030A0F84020A0F848
:101E6C004420A0F85020B0F8403004B09BB243F4AA
:101E7C003F43A0F8403010467047000070B5CB7857
:101E8C000A78032B0FD8DFE803F00264505930F8BE
:101E9C00223023F4EC4323F070031B041B0C43F49B
:101EAC00007320F8223040F60F730C7830F82420A1
:101EBC0044F4004545F080051A402A4320F82420BC
:101ECC008A7A0D78002A40F097804C788A88002C0A
:101EDC004AD0B0F850405208A4B204EBC50400EB51
:101EEC0044045200C4F800240C7830F82420520624
:101EFC0008D530F82420134043F4004343F0C003CA
:101F0C0020F824300A7830F8223023F4E04323F010
:101F1C0040031B041B0C83F0200343F4004343F0E9
:101F2C00800320F82230002070BD30F8223023F4DA
:101F3C00EC4323F070031B041B0CB2E730F8223087
:101F4C0023F4EC4323F070031B041B0C43F4C06319
:101F5C00A7E730F8223023F4EC4323F070031B0482
:101F6C001B0C43F480639CE7B0F8503052089BB2D2
:101F7C00043303EBC503520000F5806444F81320CE
:101F8C00B0F850200D6992B20B7806323E2D02EB60
:101F9C00C30229D9C5F34F16EB0604BF06F1FF3374
:101FAC009EB26E4B43EA86239BB244F812300A78F9
:101FBC0030F822305E040BD530F8223023F0F003D9
:101FCC001B051B0D43F4404343F0800320F82230E3
:101FDC000A7830F8223023F4804323F070031B047A
:101FEC001B0C83F4405398E7C5F34F03ED0744BF34
:101FFC0001339BB29B02D7E730F8252022F4F8720C
:10200C001205120D42F4014242F0800220F8252004
:10201C00B0F850200C7892B202EBC402CC8800F5D8
:10202C0080656408640045F81240B0F850200C78C4
:10203C0092B2043202EBC4020C896408640045F8C5
:10204C0012404A780C78002A47D130F824205504E5
:10205C0008D530F82420134043F4404343F0800368
:10206C0020F824300A7830F822305C060BD530F892
:10207C00223023F0F0031B051B0D43F4004343F007
:10208C00C00320F822300A7830F8223023F0F00315
:10209C001B051B0D43F4004343F0C00320F8223012
:1020AC0048F280020C7830F8243023F4804323F07B
:1020BC0070031B041B0C83F44053134320F824308F
:1020CC00097830F8213023F4E04323F040031B045B
:1020DC001B0C134320F8213025E730F82420520440
:1020EC0008D530F82420134043F4404343F08003D8
:1020FC0020F824300A7830F822305B060BD530F803
:10210C00223023F0F0031B051B0D43F4004343F076
:10211C00C00320F822300A7830F8223023F0F00384
:10212C001B051B0D43F4404343F0800320F8223081
:10213C0048F280020C7830F8243023F4E04323F08A
:10214C0040031B041B0C134320F82430097830F88F
:10215C00213023F4804323F07003B8E70080FFFFA5
:10216C0010B58C7A4A780B78CCBB02B330F82320AC
:10217C0052060BD530F8232022F0F0021205120D76
:10218C0042F4004242F0C00220F823200A7830F8D2
:10219C00223023F4E04323F040031B041B0C43F4D4
:1021AC00004343F0800320F82230002010BD30F8AB
:1021BC00232054040BD530F8232022F0F002120512
:1021CC00120D42F4404242F0800220F823200A789B
:1021DC0030F8223023F4804323F07003DDE7002A2B
:1021EC0048D130F8232052040BD530F8232022F0AC
:1021FC00F0021205120D42F4404242F0800220F827
:10220C0023200A7830F822305C060BD530F82230C7
:10221C0023F0F0031B051B0D43F4004343F0C003F4
:10222C0020F822300A7830F8223023F0F0031B0516
:10223C001B0D43F4004343F0C00320F8223048F256
:10224C0080020C7830F8243023F4804323F07003A0
:10225C001B041B0C134320F82430097830F8213070
:10226C0023F4E04323F040031B041B0C134320F81E
:10227C0021309AE730F8232052040BD530F8232074
:10228C0022F0F0021205120D42F4404242F080029C
:10229C0020F823200A7830F822305B060BD530F872
:1022AC00223023F0F0031B051B0D43F4004343F0D5
:1022BC00C00320F822300A7830F8223023F0F003E3
:1022CC001B051B0D43F4404343F0800320F82230E0
:1022DC0048F280020C7830F8243023F4E04323F0E9
:1022EC0040031B041B0C134320F82430097830F8EE
:1022FC00213023F4804323F07003B5E70A788AB9C0
:10230C00038823F4804323F040031B041B0C83F449
:10231C00805383F0100343F4004343F080030380A5
:10232C00002070474B7883B130F8223023F4E0431F
:10233C0023F040031B041B0C83F0100343F40043F5
:10234C0043F0800320F82230EAE730F8223023F4FF
:10235C00804323F070031B041B0C83F48053EDE7C4
:10236C004B780A7813B330F822305B060BD530F873
:10237C00223023F0F0031B051B0D43F4004343F004
:10238C00C00320F822300A7830F8223023F4E043DE
:10239C0023F040031B041B0C83F0300343F4004375
:1023AC0043F0800320F822300020704730F82230B0
:1023BC005B040BD530F8223023F0F0031B051B0D0A
:1023CC0043F4404343F0800320F822300A7830F87D
:1023DC00223023F4804323F070031B041B0C83F482
:1023EC004053DBE711B98023A0F84C300020704734
:1023FC000020704700207047B0F8440080B270474E
:10240C000020704710B50024013300F580605B108C
:10241C0000EB4202A34200D110BD31F8020B22F8AE
:10242C0024000134F6E7000070B50E468A6949783D
:10243C00054601293369B07A66D19A421C469BBF86
:10244C0000231446D21AB36188BFB261A3B210BB89
:10245C00B28871692846FFF7D5FFB5F8503032784D
:10246C009BB2023303EBC20305EB4303C3F80044F6
:10247C00327835F8223023F4E04323F040031B0478
:10248C001B0C83F0300343F4004343F0800325F826
:10249C002230002070BD327835F82210D20011F0B5
:1024AC00400FB5F8501089B21AD002310A4405EB2E
:1024BC004202C2F80044328971692846FFF7A2FF34
:1024CC00737832789BB935F8223023F0F0031B0572
:1024DC001B0D43F4004343F0C00325F82230C7E73B
:1024EC000A4405EB4202C2F80444F288E4E7012BEB
:1024FC00BED135F8223023F0F0031B051B0D43F43D
:10250C00404343F08003E8E79A4293BF0023D21A7A
:10251C00B261B36198BF1346327870BBB5F85010F6
:10252C003E2B89B201F1060101EBC20105F5806079
:10253C0018D9C3F34F12DB0604BF02F1FF339AB272
:10254C00384B43EA82239BB240F81130327835F88D
:10255C00223023F4804323F070031B041B0C83F400
:10256C00405390E7C3F34F02DC0744BF013292B2F1
:10257C00920292B240F81120E8E7B9B9B5F85010C0
:10258C003E2B89B201F1020101EBC20105F5806419
:10259C0028D9C3F34F10DA0604BF00F1FF3290B212
:1025AC00204A42EA802292B244F8112072783178A3
:1025BC005ABBB5F850203E2B92B202F1060202EB48
:1025CC00C10205F5806015D9C3F34F11DC0604BFB9
:1025DC0001F1FF3399B2134B43EA81239BB240F8CC
:1025EC001230B3E7C3F34F02D80744BF013292B2A3
:1025FC009202D8E7C3F34F01DB0744BF013189B224
:10260C00890289B240F81210A0E7012A9ED1B5F8D0
:10261C00502092B2023202EBC10205EB4202C2F828
:10262C00003493E70080FFFF10B50024013300F560
:10263C0080605B1000EB4202A34200D110BD52F847
:10264C00240021F814000134F6E7D0F818321BB13D
:10265C000020C3F81402704702207047D0F81C32D7
:10266C0010B5D0F818425BB194F80002FF2807D0DF
:10267C009B6894F8012221469847FF2384F8003286
:10268C00002010BD43230380004870474000002009
:10269C0043230380004870478400002043230380B9
:1026AC0000487047D40000200A230380004870477C
:1026BC00C800002038B50546D0F8184201F012F8D1
:1026CC00D5F81832C4F80C024BB1D5F81C3204F50D
:1026DC000371DB68D4F804029847002038BD02204F
:1026EC0038BD0000F8B50F78064617F060030C46AD
:1026FC0023D0202B19D1CA884B78C2B13906D0F817
:10270C0018520BD5D0F81C1218468F682946B847BA
:10271C0029463046E28800F072FB06E085F800326C
:10272C0085F80122294600F07FFB0020F8BDD0F887
:10273C001C0284681846A047F7E74B780A2BF4D1A3
:10274C0001220149E7E700BF9801002010B50446BB
:10275C00812100F063FF0121204600F05FFF822100
:10276C00204600F05BFFD4F8183253B1D4F81C3279
:10277C005B689847D4F8180200F0BEFF0023C4F839
:10278C001832002010BDF8B5037C04467BBB4FF417
:10279C0000730222812100F031FF4FF400730222FA
:1027AC000121204600F02AFF082303228221204623
:1027BC0000F024FF4FF4077000F09AFF0646C4F8AF
:1027CC00180220B30025D4F81C321B689847277CCC
:1027DC00C6F81452C6F8185287B94FF40073D6F8DD
:1027EC0004220121204600F06FFF3846F8BD40233B
:1027FC000222812100F002FF4023D0E74023D6F8CB
:10280C0004220121204600F05FFF2846F8BD01207C
:10281C00F8BD19B1C0F81C12002070470220704797
:10282C00D0F818320020C3F80812C3F810227047F1
:10283C00D0F818320020C3F804127047D0F81822D0
:10284C0010B562B1047C44B94FF40073D2F8042281
:10285C00012100F039FF002010BD4023F6E70220D3
:10286C0010BD08B580B1D0F8143213B10023C0F8F4
:10287C00143209B1C0F810120123027080F8FC3137
:10288C0000F06EFE002008BD022008BD19B1C0F892
:10289C001412002070470220704708B500F0A0FE0B
:1028AC00002008BD08B5D0F814320BB9022008BDC1
:1028BC001B6898470028F9D108BD08B5D0F8143228
:1028CC005B689847002008BD38B500F502750446D2
:1028DC00284600F064FA012394F80812C4F8F43185
:1028EC00B4F80E32C4F8F83101F01F03012B0ED0EE
:1028FC0007D3022B10D001F08001204600F09CFE83
:10290C0003E02946204600F0D5F8002038BD2946C2
:10291C00204600F0C9F9F8E72946204600F0DCF91A
:10292C00F3E738B50446154611BBD0F8F431032B48
:10293C000FD1D0F80C31D0F8102193420BD99B1A3F
:10294C009A4228BF1A46C0F80C3192B2294600F0C0
:10295C007AFA002038BDD0F814321B6923B190F8F4
:10296C00FC21032A00D19847204600F074FAF0E7C6
:10297C00D0F814329B69002BEBD090F8FC21032A81
:10298C00E7D19847E5E770B5134604460E46002993
:10299C003DD1D0F8F421022A0FD1C569026A9542C3
:1029AC0014D9AA1AC261194692B200F035FA33460C
:1029BC001A461946204600F087FE94F80032012B87
:1029CC0002D1002384F80032002070BD8369B3FB70
:1029DC00F2F502FB153565B99A420AD8D0F8F82100
:1029EC00934206D22A4600F017FAC4F8F8512B4647
:1029FC00DEE7D4F81432DB682BB194F8FC21032AFF
:102A0C0001D120469847204600F030FAD5E7D0F89F
:102A1C0014325B69002BD7D090F8FC21032AD3D158
:102A2C009847D1E7002238B504464025114640238B
:102A3C0000F0E4FD2B46C4F8105100228021204602
:102A4C0000F0DCFD012384F8FC31D4F81832256247
:102A5C002BB1D4F8143221795B68204698470020BA
:102A6C0038BD01740020704790F8FC3180F8FD31BE
:102A7C00042380F8FC310020704790F8FD3180F879
:102A8C00FC310020704708B590F8FC21032A04D1D2
:102A9C00D0F81432DB6903B19847002008BD10B59B
:102AAC000446802100F0C8FD2046BDE810400021FE
:102ABC0000F0C2BD37B54B7804460D46092B79D8CA
:102ACC00DFE813F0C900E5007800D90078006D004C
:102ADC000A007800B9008D004B881A0A013A062AC0
:102AEC0068D8DFE802F0041C296767495200D0F867
:102AFC0010321B680DF10601207C9847BDF80620AA
:102B0C00002A67D0EB88002B64D09A4228BF1A4663
:102B1C000146ADF80620204600F071F95AE0027C1F
:102B2C00D0F8143232B99B6A0DF106009847022393
:102B3C004370E3E7DB6AF7E7DBB2052B3AD8DFE853
:102B4C0003F003070B0F1317D0F810325B68D1E7B3
:102B5C00D0F810329B68CDE7D0F81032DB68C9E7AB
:102B6C00D0F810321B69C5E7D0F810325B69C1E7A9
:102B7C00D0F810329B69BDE7037CDBB9D0F8143276
:102B8C000DF106005B6B9847B8E7037C93B9D0F85E
:102B9C0014320DF106001B6B98470723C8E78B888E
:102BAC0043B9CB8833B990F8FC318D78032B05F001
:102BBC007F0503D12046FFF772FF0BE080F8FE5132
:102BCC00294600F065FD204600F045F92DB10223A1
:102BDC0084F8FC31002003B030BD0123F8E789787C
:102BEC00304D01292970E5D890F8FC31022B0CD01E
:102BFC00032BDFD1B1B90223416080F8FC31FFF720
:102C0C005CFE204600F027F9E4E70029F9D0012109
:102C1C000323416080F8FC312046FFF743FE022875
:102C2C00EFD1C7E741680129EBD0C9B2FFF745FEE8
:102C3C0029786160F0E7CA88012ABBD190F8FC3191
:102C4C00022B03D0032BB5D1011D64E701460023F1
:102C5C0041F8083F5FE790F8FC31023B012BA9D803
:102C6C000123C360D0F804320BB10323C3600222EA
:102C7C0004F10C014FE74B88012BABD1C4F80432A3
:102C8C00D4F8143229469B6820469847B9E790F847
:102C9C00FC31023B012B8DD84B88012B9AD10023A0
:102CAC00ECE700BF9901002038B590F8FC310446E0
:102CBC00032B0D460DD10B79012B0AD8D0F8143209
:102CCC009B689847EB8813B9204600F0C4F80020A5
:102CDC0038BDFFF7E4FEFAE770B50A788E8802F08B
:102CEC006002202A04460D46F3B205D1D0F8143206
:102CFC009B689847002070BD4A78012A1CD02AD3C3
:102D0C00032AF7D190F8FC21022A40D0032A02D0E2
:102D1C00FFF7C5FEEEE74A8822B95E0602D01946D7
:102D2C0000F08AFCD4F8143229469B682046984758
:102D3C00204600F090F8DDE790F8FC21022A26D01E
:102D4C00032AE5D14A88002AD4D15906F0D0194675
:102D5C0000F080FCE6E790F8FC21022A17D0032A49
:102D6C00D6D103F07F0516F0800F00EB0515194640
:102D7C0014BF143505F5827500F07AFC68B1012397
:102D8C002B6002222946204600F039F8B2E75A0699
:102D9C00B0D0194600F050FCACE72860F1E70B7896
:102DAC0003704B784370CA788B7803EB0223438013
:102DBC004A790B7903EB02238380CA798B7903EB75
:102DCC000223C380704730B588B105462B1A15F81D
:102DDC00014BDBB2002CF9D15B00023313800B707A
:102DEC0003234B700223013810F8015F05B930BD85
:102DFC005A1CCD54D2B20233DBB28C54F4E71346D6
:102E0C00022210B5C0F8F42183610A46C361002187
:102E1C0000F04CFC002010BD08B513460A460021FA
:102E2C0000F044FC002008BD1346032210B5C0F886
:102E3C00F421C0F808310A46C0F80C31002100F02A
:102E4C0043FC002010BD08B513460A46002100F0D3
:102E5C003BFC002008BD08B50423C0F8F431002366
:102E6C001A46194600F022FC002008BD08B50523BF
:102E7C00C0F8F43100231A46194600F025FC002056
:102E8C0008BD000010B58AB01822002104A800F07B
:102E9C00F7FC2948294B002403604FF480738360AE
:102EAC000123C3604FF46023C36104230194029493
:102EBC000394446144600361FDF76CFB08B100F0BE
:102ECC0095F91F4B04A91C48049307940894059486
:102EDC000694FDF74FFA08B100F088F9002301249D
:102EEC000193062301A9144802940393FDF7BEF93C
:102EFC0008B100F07BF90194022401A90E48029458
:102F0C00FDF7B4F908B100F071F90194032401A99B
:102F1C0009480294FDF7AAF908B100F067F90423F7
:102F2C0005480DEB030101940293FDF79FF908B1DD
:102F3C0000F05CF90AB010BDC00300200024014071
:102F4C000002800030B5054687B01022002102A88F
:102F5C0000F096FC2A681C4B9A4232D103F56C4364
:102F6C009A691A4842F400729A619A6902A902F4A9
:102F7C0000720092009A9A69154C42F004029A6110
:102F8C009B6903F004030193019B1F23029303230A
:102F9C000393FDF7E9FC8022E2604FF400620D4BD5
:102FAC00626123602022002320466360A3602361BA
:102FBC00A261E361FDF7D6FB08B100F017F92C62B2
:102FCC00656207B030BD00BF00240140000801401D
:102FDC00F0030020080002400A4B07B55A690B2089
:102FEC0042F001025A6100225B69114603F00103B1
:102FFC000193019BFDF760FB0B20FDF791FB03B0E8
:10300C005DF804FB001002401022F0B589B00DEB06
:10301C000200002100F034FC204B214F9A69214D15
:10302C0042F020029A619A69384602F0200201921D
:10303C00019A9A694FF4604142F004029A619A69CC
:10304C00022402F004020292029A9A69012642F0CA
:10305C0008029A619B69012203F008030393039B06
:10306C00FDF762FD012228464FF48061FDF75CFDFF
:10307C004FF4604304A938460493059606940794CC
:10308C00FDF772FC4FF4806304A92846049305965F
:10309C0006940794FDF768FC09B0F0BD00100240DF
:1030AC00000C01400008014070B50446012216488E
:1030BC000E464FF40041FDF737FD00224FF48061BE
:1030CC001248FDF731FD01224FF400510E48FDF777
:1030DC002BFD0D4800224FF48041FDF725FDB4F582
:1030EC007A7F204628BF4FF47A700025084C606325
:1030FC00A063B54203DB00236363A36370BD0120AF
:10310C00FDF766F80135F4E7000C014000080140BA
:10311C00002C01404FF4FA614FF47A70FFF7C4BFF2
:10312C00282230B595B00DEB0200002100F0A8FB71
:10313C00142200210DEB020000F0A2FB1022002152
:10314C0001A800F09DFB4FF4803301240B93022562
:10315C0012934FF480130AA813930A940E941195AA
:10316C00FEF7D0F80F234FF480620593002321461D
:10317C0005A80793089209930695FEF78BFA12237C
:10318C0001934FF4804303934FF4800301A80493FD
:10319C00FEF732FB15B030BD08B5FCF7F5FFFFF7B5
:1031AC00BFFFFFF731FFFFF717FFFFF76BFE00F0D4
:1031BC002BF900F0B7F800210948FEF7C9FD0421EE
:1031CC000748FEF7C5FD042206490748FDF732F90A
:1031DC00FFF7A0FF4FF4FA60FCF7FAFFFEE700BF21
:1031EC004404002034040020C00300207047000079
:1031FC000E4B82B09A6942F001029A619A6902F010
:10320C0001020092009ADA6942F08052DA61DB69BD
:10321C00074A03F080530193019B536823F0E0634A
:10322C0043F00073536002B0704700BF00100240BF
:10323C00000001407047FEE7FEE7FEE7FEE770473F
:10324C0070477047FCF7B2BF0148FDF7F9BA00BFF1
:10325C00F00300200148FDF779BD00BF780E002077
:10326C000F4B1A6842F001021A6059680D4A0A4065
:10327C005A601A6822F0847222F480321A601A683A
:10328C0022F480221A605A6822F4FE025A604FF42B
:10329C001F029A604FF00062034B9A60704700BFA8
:1032AC00001002400000FFF800ED00E00268084B3F
:1032BC0082B09A420AD103F564439A6942F40062DF
:1032CC009A619B6903F400630193019B02B0704700
:1032DC00002C014010B5044686B01022002102A833
:1032EC0000F0CEFA22680D4B9A4214D103F56443D8
:1032FC009A6902A942F004029A619B69084803F09A
:10330C0004030193019B4FF4407302930223039334
:10331C000593FDF729FB06B010BD00BF002C014042
:10332C000008014010B5002494B01022002102A81E
:10333C0000F0A6FA1C22214606A80094019400F085
:10334C009FFA1C2221460DA800F09AFA40F2BF33D6
:10335C002B482C4A846080E80C0040F2E73304616F
:10336C00C36044618461FEF725FC08B1FFF73EFFA2
:10337C004FF4805302A922480293FEF72AFB08B1AE
:10338C00FFF734FF1E48FEF72FFC08B1FFF72EFFA6
:10339C00002469461A4800940194FEF715FD08B103
:1033AC00FFF724FF6023002206A915480693079413
:1033BC00089409940A940B940C94FEF75BFC08B1E6
:1033CC00FFF714FF042206A90D48FEF753FC08B1C1
:1033DC00FFF70CFF00234FF400520DA908480D9382
:1033EC000E930F931093119312921393FEF7C6FC46
:1033FC0008B1FFF7FBFE0248FFF76CFF14B010BDDD
:10340C0044040020002C014008B500220E490F484E
:10341C00FFF727FA08B1FFF7E9FE0D490B48FFF754
:10342C0035FA08B1FFF7E2FE0A490848FFF7F1F94F
:10343C0008B1FFF7DBFE0548FFF72FFA18B1BDE81E
:10344C000840FFF7D3BE08BD2C01002084040020E7
:10345C00080000201C01002000207047002070474D
:10346C0010B5054C01462046FFF7E2F92046FFF760
:10347C00E5F9002010BD00BF8404002010B5064CF7
:10348C00002206492046FFF7CBF905492046FFF7F5
:10349C00CFF9002010BD00BF84040020900A00204A
:1034AC00A806002007B50D4B02689A4212D103F50D
:1034BC00DA33DA69142042F40002DA610022DB69A3
:1034CC00114603F400030193019BFDF7F5F814205A
:1034DC00FDF726F903B05DF804FB00BF005C00406B
:1034EC0000F22C41D0F85C04FFF7EEB900EB41136D
:1034FC00D3F83C22D0F85C04FFF713BA00EB41136D
:10350C00DA6BD0F85C04FFF73EBAD0F85C04FFF736
:10351C00BABA836810B5022B044601D0FFF766FED9
:10352C00D4F85C040121FFF79CFAD4F85C04BDE8E4
:10353C001040FFF777BA000010B50446D0F85C04D1
:10354C00FFF792FAA36923B1024A136943F0060309
:10355C00136110BD00ED00E0D0F85C04FFF78DBAEC
:10356C000223082210B51C4904461C4880E80E00B2
:10357C000023C0F85C44C4F820028361C361036279
:10358C00FDF7D7FA08B1FFF731FE002218231146D8
:10359C00D4F82002FDF79EFE582300228021D4F897
:1035AC002002FDF797FEC02300228121D4F82002CF
:1035BC00FDF790FE4FF4887300220121D4F820020D
:1035CC00FDF788FE4FF4807300228221D4F820028C
:1035DC00FDF780FE002010BD005C0040780E00203E
:1035EC0008B5D0F82002FDF70DFB03289ABF024B5B
:1035FC00185C022008BD00BFD438000810B51C466A
:10360C00D0F8200213462246FDF727FB03289ABF69
:10361C00014B185C022010BDD438000808B5D0F856
:10362C002002FDF73DFB03289ABF024B185C0220D9
:10363C0008BD00BFD438000808B5D0F82002FDF74B
:10364C00FDFD03289ABF024B185C022008BD00BF89
:10365C00D438000808B5D0F82002FDF718FE03286E
:10366C009ABF024B185C022008BD00BFD43800087A
:10367C000A06D0F8203245BF01F07F0103EB41135D
:10368C0003EB411393F82A0058BF93F82A027047B2
:10369C0008B5D0F82002FDF7CCFA03289ABF024BEC
:1036AC00185C022008BD00BFD438000808B5D0F85B
:1036BC002002FDF735FB03289ABF024B185C022051
:1036CC0008BD00BFD438000808B5D0F82002FDF7BB
:1036DC0008FB03289ABF024B185C022008BD00BFF0
:1036EC00D438000808B5D0F82002FDF712FB08BD4D
:1036FC00004870479C010020704770471223014816
:10370C000B80704748010020042301480B80704750
:10371C005C010020002330B51D46DCB2A24200D86B
:10372C0030BD040F092C94BF3034373401F81340EA
:10373C0001EB4304000165700133EEE71A2310B569
:10374C000B80094B186808331B68C0180AD0074B4C
:10375C0008221C680649FFF7DDFF042205492046B4
:10376C00FFF7D8FF044810BDE8F7FF1FECF7FF1F69
:10377C0062010020720100206001002010B5044C91
:10378C000A4604482146FFF71EFB204610BD00BF29
:10379C00D8120020F138000810B5044C0A46044831
:1037AC002146FFF710FB204610BD00BFD8120020A9
:1037BC000439000810B5044C0A4604482146FFF7AA
:1037CC0002FB204610BD00BFD8120020D8380008DC
:1037DC0010B5044C0A4604482146FFF7F4FA20467B
:1037EC0010BD00BFD8120020E3380008002103E010
:1037FC000B4B5B58435004310A480B4B42189A420E
:10380C00F6D30A4A02E0002342F8043B084B9A42E2
:10381C00F9D3FFF725FD00F00FF8FFF7BDFC70475B
:10382C0024390008000000207C0100207C010020CD
:10383C00D8140020FEE7000070B500250C4E0D4C8E
:10384C00A41BA410A54209D100F022F800250A4EB1
:10385C000A4CA41BA410A54205D170BD56F8253006
:10386C0098470135EEE756F8253098470135F2E7D1
:10387C001C3900081C3900081C39000820390008C4
:10388C0003460244934200D1704703F8011BF9E749
:10389C00F8B500BFF8BC08BC9E467047F8B500BF31
:0838AC00F8BC08BC9E46704701
:1038B40002030405060708090A0B0C0D0E0F10106D
:1038C40000000000000000000102030406070809CC
:1038D4000002010243444320436F6E66696700435C
:1038E400444320496E746572666163650053544DA8
:1038F4006963726F656C656374726F6E696373007C
:1039040053544D3332205669727475616C20436F81
:083914006D506F727400000099
:04391C00310100086D
:043920000D0100088D
:103924000100000010000000932700085927000838
:10393400F126000800000000692600085726000848
:10394400C126000800000000000000000000000084
:103954009D26000891260008A9260008B52600081F
:1039640009024300020100C03209040000010202FE
:1039740001000524001001052401000104240202B1
:10398400052406000107058203080010090401004C
:10399400020A000000070501024000000705810239
:1039A4004000000009024300020100C03209040083
:1039B4000001020201000524001001052401000198
:1039C40004240202052406000107058203080010EE
:1039D40009040100020A00000007050102000200B8
:1039E40007058102000200000A06000200000040F0
:1039F4000100000009074300020104C03209040069
:103A04000001020201000524001001052401000147
:103A1400042402020524060001070582030800FFAE
:103A240009040100020A0000000705010240000029
:103A3400070581024000000000A24A0489340008FE
:103A440065340008693400086D340008093700083B
:103A54001537000889370008A537000849370008DA
:103A6400C1370008DD3700081201000202020040DD
:103A74008304405700020102030100000403090407
:103A84001A03000000000000000000000000000015
:0C3A940000000000000000000000000026
:04000005080037F9BF
:00000001FF
